:020000040800F2
:10000000600600206D0100087501000877010008F6
:10001000790100087B0100087D0100080000000054
:100020000000000000000000000000007F01000848
:10003000810100080000000083010008850100081C
:100040008701000887010008870100088701000870
:100050008701000887010008870100088701000860
:100060008701000887010008870100088701000850
:100070008701000887010008870100088701000840
:100080008701000887010008870100088701000830
:100090008701000887010008870100088701000820
:1000A0008701000887010008870100088701000810
:1000B0008701000887010008870100088701000800
:1000C00087010008870100088701000887010008F0
:1000D00087010008870100088701000887010008E0
:1000E00087010008870100088701000800F002F876
:1000F00000F02CF80AA090E8000C82448344AAF196
:100100000107DA4501D100F021F8AFF2090EBAE893
:100110000F0013F0010F18BFFB1A43F0010318473B
:100120002C0200003C0200000023002400250026D1
:10013000103A28BF78C1FBD8520728BF30C148BF4A
:100140000B6070471FB51FBD10B510BD00F031F832
:100150001146FFF7F7FF00F0A3F800F04FF803B4E3
:10016000FFF7F2FF03BC00F057F800000948804792
:1001700009480047FEE7FEE7FEE7FEE7FEE7FEE789
:10018000FEE7FEE7FEE7FEE704480549054A064BA1
:10019000704700009D020008ED000008600000208C
:1001A0006006002060020020600200207047704757
:1001B0007047754600F02CF8AE4605006946534678
:1001C00020F00700854618B020B5FFF7DDFFBDE839
:1001D00020404FF000064FF000074FF000084FF0AE
:1001E000000BAC46ACE8C009ACE8C009ACE8C009FB
:1001F000ACE8C00921F007018D46704710B50446F0
:10020000AFF300802046BDE81040FFF7A8BF000014
:10021000004870470000002001491820ABBEFEE7EF
:10022000260002007047000040F60C00C4F20100F6
:10023000002101604FF40071C0F800144FF4004138
:10024000C0F800187047000040F60C00C4F201002E
:10025000012101600021C0F800144FF40041C0F8F2
:100260000018704740F60C00C4F201000121016043
:100270004FF40071C0F800140021C0F80018704756
:1002800081B000900098411E009120B10098411E5D
:1002900000280091FAD101B07047000070470000BB
:1002A00041F21800C4F20200016844F2402441F017
:1002B000040101600168C0F20F0441F0080101600F
:1002C000016841F01001016040F60000C4F2010035
:1002D000016821F00F010160016841F00201016035
:1002E000C16841F00101C16040F60440C4F2010060
:1002F000016821F0F0010160016841F02001016016
:10030000816841F400718160D0F8001421F07041DF
:10031000C0F80014D0F8001441F04051C0F80014A7
:10032000D0F8081441F40041C0F80814FFF77CFF2E
:100330002046FFF7A5FFFFF787FF2046FFF7A0FF46
:10034000FFF790FF2046FFF79BFFEFE75C030008F5
:0C035000000000206006000028010008EA
:04000005080000ED02
:00000001FF
