:020000040800F2
:10000000C83A002001010008050F00089B0D0008F8
:10001000690E000851020008993F00080000000026
:10002000000000000000000000000000293E000861
:10003000E903000800000000C3010008291F0008B0
:100040001B0100081B0100081B0100081B01000820
:100050001B0100081B0100081B0100081B01000810
:100060001B0100081B0100081B0100081B01000800
:100070001B0100081B0100081B0100081B010008F0
:100080001B0100081B0100081B0100081B010008E0
:100090001B0100081B0100081B0100081B010008D0
:1000A0001B0100081B0100081B0100081B010008C0
:1000B0001B0100081B0100081B0100081B010008B0
:1000C0001B0100081B0100081B0100081B010008A0
:1000D0001B0100081B0100081B0100081B01000890
:1000E0001B0100081B0100081B010008DFF80CD0F1
:1000F00000F044F800480047DD400008C83A0020FE
:100100000648804706480047FEE7FEE7FEE7FEE7B1
:10011000FEE7FEE7FEE7FEE7FEE7FEE7793E0008C2
:10012000ED00000872B6704762B67047EFF31080BA
:1001300072B6704780F31088704730BF704720BF99
:100140007047B0FA80F0704790FAA0F0B0FA80F0F3
:10015000704790FAA0F07047D2B201E000F8012B8E
:10016000491EFBD270470022F6E710B513460A4637
:1001700004461946FFF7F0FF204610BD064C074D18
:1001800006E0E06840F0010394E807009847103467
:10019000AC42F6D3FFF7AEFF7C4300089C43000857
:1001A00018484FF0FF010170002080F309881648BD
:1001B000016881F3088815484FF08051016062B6EC
:1001C000FEE772B6EFF3098028B1203880E8F00F1F
:1001D0000F490968086000B50E4880475DF804EBD8
:1001E0000D480E490A78027009480D490A680260F4
:1001F000106890E8F00F203080F309884EF0040E6C
:1002000062B6704722ED00E03000002004ED00E00F
:10021000FC000020FD1B00088E0000208F00002045
:100220000001002010B500F005F8BDE8104000F016
:10023000B5BD000010B500F0EDFA04490968BDE84D
:100240001040B0FBF1F001F087BE00005043000801
:10025000FEE70000054910B50020486000F0A6F850
:1002600000F006F8BDE8104000F086B8100000204D
:100270002DE9F041104D002427462C806C80AC60A5
:10028000EC606C61AC612C61FFF750FF804600268A
:100290006C6100F049F800F057F86869761C360484
:1002A0000744360CF4D0C5E904744046AC61BDE89F
:1002B000F041FFF73FBF000010000020034909692B
:1002C000884201D9401A7047002070471000002072
:1002D00010B5FFF72BFF04494C69FFF72BFF2046B1
:1002E000BDE81040FFF7EABF1000002010B5FFF78F
:1002F000EFFF0446FFF71AFF034A00215161FFF7A1
:1003000019FF204610BD00001000002010B5FFF7B7
:100310000DFF04498C69FFF70DFF2046BDE8104032
:10032000FFF7CCBF1000002010B5064C2088401C01
:100330002080608810B900F051F8A0606088401CEF
:10034000608010BD1000002010B50A4C6088401E6F
:100350000004000C60800CD100F040F8E060A1685F
:10036000401A6169814200D26061A169814200D274
:10037000A06110BD1000002010B5FFF7D7FE0446A5
:10038000FFF7D2FF1021054800F06FFDFFF7DCFFFB
:100390002046BDE81040FFF7CDBE00006C080020ED
:1003A000014948607047000010000020094810B55E
:1003B000016841F0807101600748002141600168D7
:1003C00041F00101016000F025FABDE81040FFF79F
:1003D000E7BF0000FCED00E0001000E001484068CD
:1003E00070470000001000E0704770472DE9F84F9B
:1003F000DFF8B891002409F1040A0AF1040B23463E
:100400000F270BF1040EC9E00125A5402A40AA429E
:100410007DD1674ED1F804C0ACEB0608B44532D0AC
:1004200014DCBCF1030F3AD009DCBCF1000F2AD078
:10043000BCF1010F1CD0BCF1020F31D11DE0BCF1A9
:10044000110F17D0BCF1120F2AD119E0B8F5881F8F
:1004500019D006DCB8F5803F15D0B8F5801F1FD144
:1004600011E0B8F5001F0ED0B8F5041F18D10AE04E
:10047000CB6815E0CB681B1D12E0CB6808330FE09A
:10048000CB680C330CE08B682BB1012B4FF00803C9
:1004900003D0456104E0042302E0056100E000238D
:1004A000FF2A01D8064601E000F104064FEA840560
:1004B00001D9A5F12005D6F8008007FA05FC28EA45
:1004C0000C0803FA05F548EA0508C6F800804D68EF
:1004D000ED0062D5374DAE6946F00106AE61AD69FB
:1004E00024F0030605F001050095334D06EB050CDD
:1004F000DCF80850A607360F07FA06F825EA0805C3
:10050000DFF8B880404503D14FF0000817E044E021
:10051000DFF8AC80404502D14FF001080FE0DFF872
:10052000A480404502D14FF0020808E0DFF898802F
:10053000404502D14FF0030801E04FF0040808FAEB
:1005400006F848EA0508CCF808804D68D9F800603C
:10055000ED034D4601D5164300E096432E604D68ED
:10056000DAF80060AD03554601D5164300E0964326
:100570002E604D68DBF80060ED025D4601D5164344
:1005800000E096432E604D68DEF80060AD027546CF
:1005900001D5164300E096432E60641C0D682A4680
:1005A000E5407FF431AFBDE8F88F00000004014062
:1005B000000011100010024000000140000801403E
:1005C000000C014000100140001401400AB101611B
:1005D00070470904FBE7000001488068704700008D
:1005E00000000020074810B5016841F010010160CB
:1005F000032000F067F80F2000F006F800F024F860
:10060000002010BD0020024070B50D4D04464FF48F
:100610007A712878B1FBF0F00A490968B1FBF0F073
:1006200000F0E4FA48B9102C07D200222146501EEF
:1006300000F028F800206C6070BD012070BD000043
:10064000000000200C0000200C4808B5816941F032
:1006500001018161816901F001010091C16941F0ED
:100660008051C161C06900F0805000900448416829
:1006700021F0E06141F00071416008BD00100240CE
:1006800000000140F0B40E4B1B680C46C3F302237C
:10069000C3F10705042D00D90425191D072901D22E
:1006A000002300E0DB1E012606FA05F1491E214069
:1006B00099409E40761E16403143F0BC03F076BC54
:1006C0000CED00E0064900F0070208684FF6FF0352
:1006D000184040EA0220034A1043086070470000B7
:1006E0000CED00E00000FA052DE9F0470F4605008B
:1006F00061D0434E306800F00700B84209D230683C
:1007000020F0070038433060306800F00700B8423E
:1007100051D128683B4C810712D5400703D560684A
:1007200040F4E06060602878000703D5606840F41A
:10073000605060606068A96820F0F0000843606065
:100740002878C00728D06868012810D021680228BE
:1007500010D0890700292EDA616821F003010143D6
:100760006160FFF739FF804641F288390DE021686A
:100770008903EFE78901EDE7FFF72EFFA0EB080102
:10078000494502D90320BDE8F0876068696800F038
:100790000C00B0EB810FEFD1306800F00700B842D9
:1007A0000BD9306820F0070038433060306800F023
:1007B0000700B84201D00120E5E72878400705D5B9
:1007C0006068E96820F4E06008436060287800070A
:1007D00006D56068296920F4605040EAC100606075
:1007E00000F03EF86168084AC1F30311515CC8404B
:1007F0000649086006480068FFF706FF0020C2E7C8
:100800000020024000100240F04200080C000020CE
:100810000400002001480068704700000C00002020
:100820000448054900684968044AC1F30221515C43
:10083000C84070470C000020001002400043000830
:100840000448054900684968044AC1F3C221515C63
:10085000C84070470C000020001002400043000810
:1008600012A185B00FC98DE80F0014A0144A0068CA
:1008700004905168134801F00C03042B10D0082B8E
:100880000ED1C1F38343C9031DF803000AD5516893
:1008900004AAC1F34041515C0A4A5043B0FBF1F055
:1008A00005B0704708494843FAE700000203040511
:1008B000060708090A0B0C0D0E0F101001020000AC
:1008C0000010024000127A0000093D002DE9F84FA7
:1008D000040070D02078C04DC00749D06868C0F3CC
:1008E0008100012807D06868C0F38100022809D17F
:1008F0006868C00306D52868800339D56068002879
:10090000E7D035E06068B0F5803F0BD010B1B0F5AE
:10091000A02F11D0286820F480302860286820F4A7
:10092000802002E0286840F480302860606890B140
:10093000FFF752FE06460AE0286840F4802028604F
:10094000F0E700BFFFF748FE801B642873D82868D3
:100950008003F7D50CE0FFF73FFE064605E000BF39
:10096000FFF73AFE801B6428F0D828688003F7D48C
:1009700020789A4E80074FF001094FF0000839D5D2
:10098000686810F00C0F07D06868C0F38100022877
:1009900009D16868C00306D42868800714D5206987
:1009A000012808D110E02069B0B1C6F80090FFF727
:1009B00013FE074605E00AE1FFF70EFEC01B022802
:1009C000C4D828688007F7D52868616920F0F80046
:1009D00040EAC10028600DE0C6F80080FFF7FCFD8A
:1009E000074604E0FFF7F8FDC01B022823D828685B
:1009F0008007F7D4207800072CD57948A169D9B1B0
:100A0000C0F80090FFF7E8FD074604E0FFF7E4FDBB
:100A1000C01B02280FD8686A8007F7D571484FF4C9
:100A2000FA510068B0FBF1F0009000BF0098411E41
:100A30000091FAD20EE080E0C0F80080FFF7CCFD14
:100A4000074604E0FFF7C8FDC01B022875D8686A96
:100A50008007F7D42078400760D5E8690027C000F8
:100A600008D4E86940F08050E861E869012700F0A7
:100A7000805000905C480168C90513D40168834622
:100A800041F480710160FFF7A7FD824606E000BFD8
:100A9000FFF7A2FDA0EB0A0064284ED8DBF80000A7
:100AA000C005F5D5E06801280AD008B1052813D0A3
:100AB000286A20F001002862286A20F0040002E081
:100AC000286A40F001002862E06841F2883B98B152
:100AD000FFF782FD82460BE0286A40F0040028629E
:100AE000EEE700BFFFF778FDA0EB0A0159455AD8A1
:100AF000286A8007F6D50CE0FFF76EFD824605E018
:100B0000FFF76AFDA0EB0A0159454CD8286A800717
:100B1000F6D41FB1E86920F08050E861E06988B33D
:100B20006968C1F38101022944D00228C6F86080B7
:100B300004D0FFF751FD044638E034E0FFF74CFDE8
:100B4000074604E0FFF748FDC01B02282BD82868A1
:100B50008001F7D4206AB0F5803F05D16868A168AC
:100B600020F4003008436860D4E90801084369684C
:100B700021F4741108436860C6F86090FFF72CFDFB
:100B8000044606E025E000BFFFF726FD001B022813
:100B900009D828688001F7D51BE000BFFFF71CFDCE
:100BA000001B022802D90320BDE8F88F28688001C5
:100BB000F4D40EE00128F7D06868226A00F480318E
:100BC000914204D1616A00F47010884201D0012082
:100BD000EAE70020E8E7000000100240000042427F
:100BE000800442420C0000200070004010B5401EFE
:100BF000B0F1807F01D3012010BD4FF0E02460618F
:100C00000F21601703F0D2F90020A06107202061B6
:100C1000002010BD70B5040004D094F83D000025FC
:100C200010B106E0012070BD84F83C50204600F071
:100C300023F8242084F83D002068C16821F4005185
:100C4000C160204603F01AF92068016921F490413F
:100C500001612068416921F02A0141612068C16871
:100C600041F40051C1602564202084F83D0084F8DF
:100C70003E00002070BD000030B585B00024009417
:100C800001940294039400681449884224D11448C2
:100C9000816941F480418161816901F4804104915D
:100CA000816941F00401816180690E4D00F004000A
:100CB00004904FF4007000900220019003200390F4
:100CC00069462846FFF792FB2815CDE900046946DE
:100CD00028460294FFF78AFB05B030BD003801407A
:100CE00000100240000801402DE9F843044690F846
:100CF0003D001F4616460D4620284CD1C5B1BEB159
:100D000094F83C00012846D0012084F83C004FF0C4
:100D10000008C4F84080212084F83D00FFF75CFC07
:100D2000A6848146E684A068B0F5805F03D004E025
:100D30000120BDE8F883206928B12E465FF0000548
:100D400084F83C800EE00026FAE78021204603F07C
:100D5000F1F8A0B9AEB116F8010B21684860E08C3B
:100D6000401EE084E08C4B464FF0000200970028C4
:100D7000EBD14FF04001204603F0DCF830B1032006
:100D8000D7E735F8020BC0F30800E6E7202084F827
:100D90003D000020CDE70220CBE7FEE72DE9F04142
:100DA00086B000241F480094019402940394816942
:100DB00041F020018161816901F020010491816984
:100DC00041F004018161816901F0040104918169AC
:100DD00041F0080181618069134F00F00800049020
:100DE000002220213846FFF7F1FBDFF84080002287
:100DF00002214046FFF7EAFB20200126CDE900064C
:100E0000022569463846CDE90245FFF7EFFACDE9FC
:100E1000005669464046CDE90245FFF7E7FA06B0BD
:100E2000BDE8F0810010024000080140000C0140C4
:100E30000C4810B50A4901604FF4E13141600021CE
:100E400081600C22C160C0E904128161C161FFF7B9
:100E5000E1FE002803D0BDE81040FFF7C6BA10BD80
:100E60000038014028080020FEE70A46002100F073
:100E700023B800000D480E490246C0E900120021C7
:100E80008160C160016141618161C1610162016391
:100E9000C162416200F148018163C1634FF4A05116
:100EA0000164416403480260704700007C08002030
:100EB000484541502C00002010B5002A21D00028C0
:100EC0001FD000244FEA04035B1C41EA0424042BD6
:100ED000FAD310F0030305D10BE000BF521E00F857
:100EE000011B5B1C002A0CD0042BF7D301E010C0BF
:100EF000121F042AFBD202E000F8011B521E002A36
:100F0000FAD110BDFEE7704702480068002800D003
:100F1000004770474400002010B5044600F0BEF8BA
:100F2000464800210A220170454801704548017079
:100F300045480160454801604548017045480170D9
:100F400045480170454801604548016045480160D9
:100F50004548017045480068B0FBF2F0444A106013
:100F6000444A106830B14448006818B1126802C0A1
:100F7000521EFCD141480160414801604148016076
:100F800041480160414801604148016041480160B9
:100F90004148017001F0E0FC01F092FD204600F0B4
:100FA000F1FF2088002847D1204601F0E5FA20888B
:100FB000002841D1204601F0EBFA208800283BD1DF
:100FC000204601F07FFB2088002835D1204601F023
:100FD000E9FC208800282FD1204601F099FE2088C6
:100FE000002829D1204602F005F92088002823D1C5
:100FF000204601F035FA208800281DD1204601F056
:10100000CDF82088002817D1204602F05FFD208807
:10101000002811D1204602F04BF8208800280BD17F
:10102000204602F0A7FD2088002805D100F0A8FF87
:10103000BDE81040FFF767BF10BD0000580000205A
:1010400060000020A8000020FC000020000100201B
:101050008E0000208F000020900000209C000020C7
:10106000A0000020A4000020B00000205043000891
:10107000AC0000202C430008284300083800002062
:101080003C000020400000204400002048000020D8
:101090004C00002050000020DE00002030B5094B3D
:1010A0000020094A0446196801E010C1401C156877
:1010B000A842FAD31868054900EB8500001F0860B4
:1010C00030BD0000284300082C43000830000020F9
:1010D0001A4810B5007801282FD1FFF727F8184AD1
:1010E0000446117829B1491E11F0FF00107022D179
:1010F00003E0BDE81040FFF71DB812480078D0B9F2
:1011000001F018FC10490870104900EB400051F83C
:1011100020100F4801600F48006881420BD051F841
:10112000900F401C08600C480168491C01600B4985
:101130004FF0805008602046DBE710BD60000020C3
:1011400058000020A80000208F000020F03200206E
:1011500000010020FC000020D400002004ED00E08D
:10116000164810B50078002826D1154800780028C8
:1011700022D1FEF7DBFF044601F0DCFB11490870C9
:10118000114900EB400051F8200010490860104957
:10119000096888420BD050F8901F491C01600D4827
:1011A0000168491C01600C494FF0805008602046DE
:1011B000BDE81040FEF7BEBF10BD00005800002083
:1011C000A80000208F000020F03200200001002045
:1011D000FC000020D400002004ED00E070B50446BF
:1011E0001248007810B146F662501DE010480078B1
:1011F000012802D045F6896016E00E4D2878FA28BD
:1012000002D345F209200FE0FEF790FF0646FFF7F4
:101210008BF82878401C287001F01AFDFFF794F82D
:101220003046FEF787FF0020208070BD5800002068
:1012300060000020A80000202DE9F04116460C4671
:101240000546FEF773FF0746FFF76EF829460D487F
:101250000025012901D0057001E0012101700A4833
:101260000CB1046005E009490A220968B1FBF2F1FA
:101270000160FFF769F83846FEF75CFF3580BDE88E
:10128000F0810000B0000020AC00002050430008B6
:1012900070B504461848007810B146F6655029E04C
:1012A00016480078012802D045F6896022E0144DE6
:1012B000287890B1FEF73AFF0646FFF735F8287810
:1012C000401E10F0FF0028700AD0FFF73DF83046AE
:1012D000FEF730FF46F663500CE046F6645009E036
:1012E00001F0C4FCFFF730F83046FEF723FFFFF7AC
:1012F00037FF0020208070BD5800002060000020D3
:10130000A800002070B50F4D0446287818B145F6A6
:101310008A60208070BD01F00DFB0B4908700B49FD
:1013200008700B4900EB400051F8200009490860A3
:101330000949086001202870FEF732FF43F6992022
:10134000E7E70000600000208F0000208E000020F2
:10135000F032002000010020FC0000202DE9F041C7
:101360000646FEF7E3FE0546FEF7DEFF2E480024A4
:1013700004602E4804802E4804802E4804602E48C5
:1013800004602E4804602E4804602E4804602E48F5
:101390000481FEF7D9FF2846FEF7CCFEFEF7C6FE15
:1013A0000746FEF7C1FF2948056818E0FEF7BEFEB4
:1013B0000746FEF7B9FFC5F8B440C5F8B84045F890
:1013C000784F2C63AC61AC82EC826C62AC62FFF74C
:1013D00005F845F8200FA5F134008481AD6AFEF7C9
:1013E000B3FF3846FEF7A6FE002DDFD1FEF79EFEC6
:1013F0000746FEF799FF1648056806E0FEF796FED9
:101400000746FEF791FFAC85AD69FEF79DFF3846B4
:10141000FEF790FE002DF1D102F072FA02F078FC96
:101420003480BDE8F0810000740000206E000020D0
:10143000BE000020D0000020E4000020EC000020CE
:101440005C000020A0000020E4320020D800002032
:1014500094000020F8B504466946244800F0A4FB37
:10146000BDF8000058BB6A460021022000F0FAFBDC
:10147000BDF8000018BBFEF759FE0746FEF754FF03
:101480001B4E00253560FEF75FFF3846FEF752FE23
:10149000184919480A6803689A4202D9B2FBF3F066
:1014A00010B90A21B2FBF1F06A46002100F0DAFB24
:1014B00069460E4800F0F2F9BDF8000008B120803E
:1014C000F8BDFEF733FE0746FEF72EFF0B480C492A
:1014D0000560306808600B4901200870FEF734FF92
:1014E0003846FEF727FE2580F8BD000000360020B4
:1014F000C0000020504300083C430008D0000020FA
:10150000C4000020CC00002002480068002800D061
:1015100000477047480000202DE9FF4F83B0044684
:101520007248DDE91785DDE910960078DDF854A0F2
:10153000139F10B147F24A102AE04CB1059850B100
:1015400066B16B48006887420BD246F630601FE0F8
:1015500047F2AD101CE047F24F1019E046F62F603D
:1015600016E01298B84202D346F6316010E046F217
:101570007320B9F1200F0BD25FEA090103D0B9F152
:101580001F0F02D008E05B4900E05B498C4203D0AA
:10159000288007B0BDE8F08F204601F03BFE4FF0F9
:1015A000000BA5F800B05FEAC8700AD05FEA887047
:1015B00007D5304600215A4601E004C0491CB94213
:1015C000FBD31298CDE9007806EB8005DDE9050133
:1015D0002B46324600F0B0FA0599A1620699E16205
:1015E0000499216284F83790C4F854A0A560206063
:1015F0005FEA0A0024D0A0651698A763666260605F
:10160000A4F83C800020594604EB8002401CD167BE
:1016100010F0FF00F8D004F16400149901F006F80E
:10162000204600F075F8FEF781FD0646FEF77CFEC9
:10163000324D2878401CC0B22870012803D004E045
:101640002F480068D7E701F003FBFEF77DFE304628
:10165000FEF770FD94F8370001F084F9204601F0A0
:1016600075FA204601F098FD26490888401C08803C
:1016700025480078012821D0FEF758FD0446FEF7E2
:1016800053FE2878401E10F0FF0129700ED101F0A2
:10169000EDFA1E48008848B1FEF756FE2046FEF7D8
:1016A00049FD07B0BDE8F04F01F0AEBAFEF74CFEC1
:1016B00007B02046BDE8F04FFEF73CBDFEF736FD13
:1016C0000446FEF731FE2878401E10F0FF01297015
:1016D00001D101F0CBFAFEF737FE2046FEF72AFDD6
:1016E00007B0BDE8F04FFFF73BBD000058000020F9
:1016F0004C4300081C32002054310020A800002078
:10170000AC000020DC000020600000206C00002005
:1017100002490968002900D00847704738000020B6
:101720002DE9F041044652480E46007810B147F2C8
:101730004E100AE04F48844202D147F24C1004E0B8
:101740004D48844204D147F24D100880BDE8F08135
:101750005CB9FEF7EBFC0546FEF7E6FD474804687A
:10176000FEF7F2FD2846FEF7E5FCFEF7DFFC074634
:10177000FEF7DAFD424D2878401CC0B228700128DF
:1017800001D101F065FAFEF7DFFD3846FEF7D2FC25
:1017900094F8360008283DD2DFE800F004080C0C6D
:1017A0001C080C0C204601F005FA13E0204602F05C
:1017B0008BF80FE0204602F087F894F834000728F1
:1017C00008D2DFE800F00704070404040400204600
:1017D00001F023F804F1640000F00EFF204600F051
:1017E00055F8204601F0EAFC26490888401E08808A
:1017F000204601F00FFDFF2084F83600FEF796FC2E
:101800000446FEF791FD2878401E10F0FF00287076
:1018100021D022E0FEF78AFC0446FEF785FD2878F9
:10182000401E10F0FF0028700CD101F01FFA16487E
:10183000008838B1FEF788FD2046FEF77BFC01F0FA
:10184000E3F904E0FEF780FD2046FEF773FC46F660
:101850002D6030807AE701F009FAFEF775FD204629
:10186000FEF768FC00203080BDE8F041FFF778BC4F
:1018700058000020543100201C320020FC000020C1
:10188000A8000020DC0000206C000020024909684C
:10189000002900D0084770473C0000207FB50D4666
:1018A0000446FEF743FC0646FEF73EFD1CB1144815
:1018B0000068844208D1FEF747FD3046FEF73AFC47
:1018C00047F2571028807FBDFEF73EFD3046FEF7F9
:1018D00031FC0C48007858B10020CDE90205009099
:1018E0000346024601902146074800F08BFC7FBD6D
:1018F00004B029462046BDE8704001F09FBD0000BD
:10190000FC00002058000020545245530249096849
:10191000002900D008477047400000202DE9F0471B
:101920008146574814461E460078884610B146F254
:10193000AE1006E0080006D0B1F5004F03D045F622
:10194000256018803DE0002704B12760FEF7EEFB1C
:101950008246FEF7E9FC4B4D2968486CD8B1401E21
:10196000804648640CB1086C2060FEF737FD29689A
:101970000A6C801AC1F8A400D1F8A820824201D2D2
:10198000C1F8A800FEF7E0FC5046FEF7D3FB378015
:101990004046BDE8F0875FEA084007D5FEF7D4FC73
:1019A0005046FEF7C7FB46F2B01009E03648017812
:1019B00049B1FEF7C9FC5046FEF7BCFB46F6635042
:1019C00030800020E5E701218046017001F040F9F8
:1019D000FEF7BAFC5046FEF7ADFB00214B4607224E
:1019E000084600F07BFEFEF7A1FB8146FEF79CFC5B
:1019F00098F80010491E11F0FF0188F8001001D17D
:101A000001F034F9FEF7A0FC4846FEF793FBFFF720
:101A1000A7FBFEF78BFB8046FEF786FC286890F854
:101A2000351031B1012916D003291AD046F62E609F
:101A30001BE074B1006C2060FEF7D0FC29680A6CD2
:101A4000801AC1F8A400D1F8A820824201D2C1F8BE
:101A5000A80037800AE00CB1006C206046F2A910A3
:101A600003E004B1276047F2D92030802868446C35
:101A7000FEF76AFC4046FEF75DFB204689E7000062
:101A800058000020FC000020A80000202DE9F047AD
:101A90000546274816460F4600781C4610B147F207
:101AA00059100AE046F2D5203FB136B1FEF73EFBB1
:101AB0008146FEF739FC1DB104E01880BDE8F087CF
:101AC0001C4805684FF00008286858B195F83C009C
:101AD000C00713D0FEF738FC4846FEF72BFB00206A
:101AE000696A1AE0FEF730FC4846FEF723FBC7F8A8
:101AF000008047F25210C6F800800AE0FEF724FC8E
:101B00004846FEF717FBC7F8008047F25410C6F8A6
:101B100000802080D2E7401C091D0A68002AFAD004
:101B20003860A96B081A3060A4F80080C6E700008E
:101B300058000020FC00002010B5029C02EB84023B
:101B40004FF0807442E90204164842F80C0C4FF042
:101B5000123042F8100CA2F114004FF0023240E9AA
:101B600003134FF0113140F8101CD10040F8141C41
:101B70004FF0093140F8181C910040F81C1C4FF040
:101B800007314FF0033440F8201C610040F8241C5A
:101B90004FF0053140F8281D5100C0E9092440F8F4
:101BA000041D10BD3D3500081FB5104A904202D1FA
:101BB00047F25B1004E00E4A904203D147F25C10FA
:101BC00008801FBD0B4A127852B10022CDE90221D4
:101BD0000146009213460192074800F013FB1FBD17
:101BE00004B0BDE8104001F079BD00005431002080
:101BF0001C320020580000205453555370B515482E
:101C0000006800B18047FEF7E9FB134C134A2168D6
:101C10001268914207D0D1F89830C31A41F8943F26
:101C20008D682B448B60C2F89800FEF75FFB21683B
:101C3000D1F8B420824201D2C1F8B400084AD1F8E8
:101C4000B8301068834201D2C1F8B800002010609B
:101C500070BD00004C000020FC00002000010020AE
:101C6000A40000202DE9F041804636480F46154675
:101C7000007810B147F2752020E0334C207810B185
:101C800046F663501AE047B1022F06D0042F07D062
:101C9000082F02D045F6256010E0B8F1000F0BD0F8
:101CA000FEF744FA0646FEF73FFB2078401CC0B220
:101CB0002070012805D006E047F27E201080BDE8A4
:101CC000F08100F0C5FFFEF73FFB3046FEF732FA29
:101CD0001E4E01212B4630683A4680F836104146A8
:101CE00001F086FD288898B1FEF720FA0546FEF738
:101CF0001BFB2078401E10F0FF01217001D100F085
:101D0000B5FFFEF721FB2846BDE8F041FEF712BA09
:101D1000306800F04FFFFEF709FA0646FEF704FBB5
:101D20002078401E10F0FF00207001D100F09EFFCF
:101D3000FEF70AFB3046FEF7FDF9FFF711FA002027
:101D40002880BCE758000020A8000020FC000020EC
:101D50002DE9F0475C4EDDE90854367816B147F2BC
:101D60007520ABE0DFF864A19AF8006016B146F682
:101D70006350A3E015F00E0647F27E2945F625676D
:101D800005D0022E03D0042E06D0082E07D11BB991
:101D900012B909B900287DD035F01E0C02D0278079
:101DA000BDE8F087C5F3001547F2792C47F2782893
:101DB0004FF47A773DB142F20F75A94212D900BFB4
:101DC000A4F800C0ECE7BB4202D347F27B2075E0E9
:101DD0003B2A02D947F27A2070E03B29F0D86328E9
:101DE00002D804E0B84202D3A4F80080D8E7384D06
:101DF0004FF4FA7CC1EB01112D68BCFBF5FC634488
:101E00006B43B3FBF7F34FF46167784300EB81005A
:101E1000104400FB0537EFB3FEF788F98046FEF764
:101E200083FA9AF800005546401CC0B28AF80000B8
:101E3000012801D100F00CFFFEF786FA4046FEF7BC
:101E400079F9DFF8908001212346D8F80000324666
:101E500080F83610394601F0CBFC208898B1FEF7A7
:101E600065F90446FEF760FA2878401E10F0FF017D
:101E7000297001D100F0FAFEFEF766FA2046BDE8AF
:101E8000F047FEF757B9D8F8000000F093FEFEF7D0
:101E90004DF900E014E00646FEF746FA2878401EA9
:101EA00010F0FF00287001D100F0E0FEFEF74CFAC0
:101EB0003046FEF73FF9FFF753F9002020806FE727
:101EC000A4F800906CE7000058000020A800002053
:101ED00050430008FC00002000B585B000F01CF85D
:101EE000FEF77CFA04AA002103920091CDE90110CB
:101EF00006480749002300781A4600EB400001EB32
:101F00008001044800F07EF905B000BD8E0000207D
:101F1000F03200205449434B02480068002800D0AA
:101F2000004770475000002010B5FEF7FFF8044648
:101F3000FEF7FAF907490878401C0870FEF704FA22
:101F40002046FEF7F7F8FFF7C7FFBDE81040FFF7A0
:101F5000BFB80000580000204FF0E021401E48614B
:101F60000648026822F07F420260086940F00500DE
:101F70000861086940F002000861704720ED00E048
:101F800070470000034A00211160034A118001805C
:101F900070470000780000207C0000202DE9F05FF1
:101FA0009A4690460D4604460A9FFEF7BFF88346C0
:101FB000FEF7BAF95FEA080024D0012807D0B0F58F
:101FC000004F1FD06FF4004118EB010F12D1206AAF
:101FD00030EA0500C4E9080A208A04F108064FF037
:101FE000000990B14D4D2878401CC0B228700128DE
:101FF00015D016E0FEF7A8F95846FEF79BF845F60F
:1020000025606CE0206A2843E4E7FEF79DF9584616
:10201000FEF790F8A7F80090206ABDE8F09F00F066
:1020200017FEFEF791F95846FEF784F8366833E05C
:1020300090F88810766801F00F0101291BD0022961
:1020400021D004290DD0082910D0FEF76FF80446DE
:10205000FEF76AF92878401E10F0FF0028702AD099
:1020600036E0216AD0F88020114009E0216AD0F8DA
:10207000802011400BE0D0F88010236A0A46994373
:102080008A4205D007E0D0F88010226A914311B14E
:10209000524600F047F816B1B0680028C8D1FEF7E4
:1020A00045F80646FEF740F92878401E10F0FF007C
:1020B000287017D018E000F0D9FD1948008838B111
:1020C000FEF742F92046FEF735F800F09DFD04E0EA
:1020D000FEF73AF92046FEF72DF843F6FF20388048
:1020E00000209AE700F0C2FDFEF72EF93046FEF719
:1020F00021F85FEA084001D4FFF732F8FEF716F83E
:102100000546FEF711F9246AFEF71EF92846FEF788
:1021100011F8A7F8009020467FE70000A8000020F3
:102120006C00002070B50025C0F8841080F8355090
:1021300080F834500446026490F8360008280ED225
:10214000DFE800F00D0D04040D0D0A0A204601F031
:1021500067F984F8365002E0042084F836002046FF
:10216000BDE8704000F059BB0A4C0B4DFDF7DEFF97
:102170000646FEF7D9F82068401C20602868401CFD
:102180002860FEF7E1F83046FDF7D4FFFEF7BCFE0D
:10219000ECE7000054000020C000002000B50E4A0B
:1021A00089B0002111600B2205910691CDE907202D
:1021B0000A480B4A0B4B006812681B680292CDE973
:1021C00003011F20CDE900030023074A07A10C48A3
:1021D000FFF7A2F909B000BD540000201043000829
:1021E0000C430008084300086921000875432F4F7D
:1021F000532D4949492049646C65205461736B0033
:10220000543100202DE9F84F1D46DDE90CB4DDE91D
:102210000AA916460F468046FDF788FF0090FEF794
:1022200083F81D481D4A0188128891422DD2491C0D
:1022300089B201801A4802888A4200D20180194975
:102240000868C0F80080C0E902760582C0F814A0D2
:10225000A0F81890C0F81CB040680860124801212E
:102260000181124901604160002000F07BFB1048B1
:10227000007808B10F49087000202080FEF764F84C
:102280000098BDE8F84FFDF755BF0B490888401C82
:10229000088044F25360F0E76C0000201843000807
:1022A0006E00002064000020F03200201C3200206C
:1022B0008E00002090000020700000203EB5374CBA
:1022C000374B02A920680268D51A9A4245D015DC1E
:1022D000344BD2182DD0344BD21822D0334BD218D5
:1022E00032D0334BDA4208D1C269CDE90021038BE9
:1022F000028AC168806800F0F1FF3EBD2D4AAA182D
:102300001ED02D4BD21824D02C4BDA42F5D1C26905
:10231000CDE90021038B028AC168806800F04EFB82
:102320003EBD0091028BC36941698068FFF736FEAC
:102330003EBD018BC269806802AB00F0F5FC3EBD7A
:10234000806801F07BF83EBD018BC269806802ABFA
:1023500021E0806801F0C2F93EBD194819490078B2
:1023600000EB400001EB800000F09EFC206802AB17
:102370000021C269144801F0EDF814480168491EB3
:102380000160E9D1124909680160FEF727F80246A9
:1023900002AB00210F4801F0DDF83EBD68000020CF
:1023A0005449434BADBAB2BE0DF90BFAF2F8F7FF40
:1023B0000006F6FF00F7FDF700FFEFFF03FE0FFE3C
:1023C00090000020F032002038350020F800002076
:1023D000F4000020003600201D4D1E4C1E4E00BF94
:1023E000FDF7A4FE0746FDF79FFF208808B3FDF721
:1023F000ABFF3846FDF79EFEFDF7F0FF0746FFF7FF
:102400005DFFFDF7EBFF2968C01B814200D2286009
:10241000FDF78CFE0746FDF787FF306840683060A7
:102420002088401E2080FDF78FFF3846FDF782FE92
:10243000D6E70A49002008810860486000F0A2FA47
:10244000FDF782FF3846FDF775FEFEF789FEC5E70A
:10245000740000206C00002068000020F032002092
:10246000F0B52F492F4D89B000220A80296831B17B
:102470002D4E3188022905D244F2546135E044F2F0
:10248000526132E029490023294F0A60296801F18D
:10249000200410E041F8087B5B1C41F8082B9BB23C
:1024A00041F8042C21F8102B41F80C2C21F8082CB1
:1024B00041F81C4C2034B6F800C06345EAD32B68C1
:1024C00041F81C3C1B490B601B490B601B490A80EF
:1024D0001B490A801B490B6853B11B4B1B4D1C68E1
:1024E0002D68AC4207D244F25661018009B0F0BDBC
:1024F00044F25561F9E7032405920692CDE90740BD
:102500001868134B09681B68CDE903020092CDE9F6
:10251000011300230F4A10A11648FEF7FDFFE5E75F
:1025200070000020144300081843000874000020C5
:102530004E4F4E4564000020680000206C000020D3
:102540006E0000201C430008244300084C43000890
:1025500020430008D923000875432F4F532D4949C4
:102560004920495352205175657565205461736B3C
:10257000000000001C320020034A00211160034AC1
:10258000118001807047000080000020840000203E
:10259000F0B5164C216859B1154E318859B189B240
:1025A000491E22688FB2002502F1100329460EE071
:1025B00045F21E7118E045F21D7115E0E2E80231A6
:1025C0006D1C22F8081BADB242F8041C1033BD424A
:1025D000F4D3116051601181D160064A2368136001
:1025E00033889380D18011810180F0BD344300088D
:1025F00030430008E432002010B5428992B10A4904
:1026000003680C681C6043680B60CB8844891B1B03
:10261000CB808B88448923448B8000214181818138
:1026200001604160104610BDE432002001810021AC
:10263000418181810160416070470000F0B54489AB
:10264000DDE905E70589AC4202D346F293501EE06E
:102650001B4DAE88CEB12C68761ED4F800C0C5F8EC
:1026600000C0AE80EE88761CB6B2EE80B5F808C029
:10267000B44500D22E814689002556B1DB060ED422
:1026800003681C60046025600CE045F21D70388012
:10269000F0BD0460012344604381256005E0436888
:1026A0002360446043895B1C4381868943899E4241
:1026B00000D2838161602281C4F80CE03D80F0BDCE
:1026C000E4320020034A00211160034A1180018096
:1026D00070470000880000208C0000202DE9F041A8
:1026E000114D07460C4628680026194680F834200C
:1026F00080F8356000F03AFD64B1FC6004F1080632
:1027000001223946286800F011F83946304600F0B9
:1027100057F802E02868C687066320462968BDE8A6
:10272000F04100F01BB80000FC00002010B5C2878B
:102730000024234601630EE04B6041F8103B641C0B
:1027400041F8103BA4B241F80C3C21F8083C41F898
:10275000043C41F8180C9442EED310BD38B14268E5
:10276000C1F8C42081688968096AC161704791F81D
:102770003400022803D0072803D004A002E004A0FC
:1027800000E005A0C1F8C400704700002000000070
:102790005461736B205100005461736B2053656D5D
:1027A0000000000005A2C1F8C420816811B1896849
:1027B000096A00E001A1C16170470000200000002B
:1027C00030B58A68002392F8374002891AB1521C4A
:1027D000028102680BE0012202814B600B60016004
:1027E00014E0956895F83750A54203D85268002A3E
:1027F000F7D107E032B1146854B1C1E90042616019
:10280000116030BD4B6042680A605160416030BD6C
:102810001160C1E90032016030BD70B50646C48F59
:10282000056B07E0E8682946083000F009F8641EE7
:10283000A4B22035002CF5D10020F087306370BDA4
:1028400010B502890023012A0BD00A6862B14C68D6
:1028500074B1546022600289521E02814B600B6089
:1028600010BD03604360F6E74A6813600260F2E758
:1028700053604260EFE7F8B50C46064691F8361013
:102880000025069808293BD2DFE801F03A3A040413
:102890003A3A202094F83410032911D0E265A4F8C4
:1028A0006030206436B12046FFF7B7FF214630463E
:1028B000FFF778FF204600F0B3FD84F836501BE0A8
:1028C00000902146304600F022F8EBE794F83410EF
:1028D000032916D0E265A4F860302064204600F099
:1028E000F3FF36B12046FFF798FF21463046FFF749
:1028F00059FF042084F8360084F8355084F83450A9
:10290000F8BD00902146304600F001F8E6E770B5CA
:102910000C6B049DC98F0AE0E668864204D1C4E9C5
:1029200004022383E56170BD491E89B22034002969
:10293000F2D170BD10B50024064802E02034E4B2A4
:10294000001D01680029F9D00846FDF7FAFB204474
:10295000C0B210BD3400002001490020086070475B
:102960003400002000F01F0241090120C2F11F02C3
:102970009040034A52F82130034342F82130704717
:102980003400002000F01F0241090120C2F11F02A3
:102990009040034A52F82130834342F82130704777
:1029A00034000020034A00211160034A1180018095
:1029B0007047000094000020980000202DE9FF4F90
:1029C00083B01F46DDE9109A93460646FDF7AEFB3D
:1029D0000546FDF7A9FC384C2078401CC0B2207099
:1029E000012801D100F034F9FDF7AEFC2846FDF7CF
:1029F000A1FB358A06F108001DB1B90530D5006884
:102A00003CE0F80601D4002300E01023CDE9009A51
:102A10005A4606F120000499FFF710FEFDF786FBE9
:102A20000546FDF781FC2078401E10F0FF01217063
:102A30000ED100F01BF92148008848B1FDF784FC55
:102A40002846FDF777FB07B0BDE8F04F00F0DCB893
:102A5000FDF77AFC07B02846BDE8F04FFDF76ABBEA
:102A6000006801255B46D0E90181CDF80090304631
:102A7000049AFFF700FF6D1E4046ADB2002DF1D164
:102A8000FDF754FB0546FDF74FFC2078401E10F083
:102A9000FF00207001D100F0E9F8FDF755FC284651
:102AA000FDF748FB380401D4FEF75AFB0021AAF8D1
:102AB000001007B0BDE8F08FA80000206C000020D7
:102AC0000020074B014600BF00EB400203EB8202EF
:102AD000401C11811160C0B251602028F4D37047AE
:102AE000F032002010B5044690F83700FFF73AFFA7
:102AF000074994F8370009788842204603D1BDE899
:102B0000104000F023B8BDE8104000F003B800000A
:102B10008E00002090F837100B4A01EB410102EBC8
:102B2000810100220B8943B15B1C0B810B68C0E95A
:102B300003320A6810610860704701230B81C2608C
:102B40000261086048607047F032002090F837104A
:102B50000A4A01EB410102EB810100220B893BB1E2
:102B60005B1C0B81C2604A680261D060486070479C
:102B700001230B81C26002610860F7E7F032002098
:102B800010B50289002A14D0012A12D00021022A8D
:102B900007D0D0E90024D3681961C2E90314E260C8
:102BA00005E0D0E90023C2E90313C3E90321C0E92A
:102BB000003210BD70B5054690F83700114900EBA2
:102BC000400001EB8001D5E90302002442B10B89EA
:102BD0005B1E0B81D06090B102612C61EC6070BD16
:102BE00028B10A89521E0A8104610860F5E70C8148
:102BF0000C604C6095F83700FFF7C4FEEDE74A60C3
:102C0000EBE70000F032002010B5FDF78FFA0B4A19
:102C1000002111700B4A0A49116051F8902F521C83
:102C20000A6009490A68521C0A60084A4FF080513C
:102C30001160BDE81040FDF77DBA00008F00002054
:102C40001C32002000010020D400002004ED00E030
:102C5000044810B50078012803D1FDF7BFFB0249F5
:102C6000086010BDA80000209C0000200A4810B594
:102C7000007800280ED1FDF7B1FB08490968401A19
:102C800007490A68824200D2086006490A688242FF
:102C900000D2086010BD0000A80000209C000020A9
:102CA000A0000020A400002070B50446144800785D
:102CB000012824D1FDF73AFA0546FDF735FB2168D6
:102CC000B1B11048814213D08A6D12B1521E8A658B
:102CD0000ED1208902280BD30B48007840B920463A
:102CE000FFF74EFF2068416D09B908490968816501
:102CF000FDF72AFB2846BDE87040FDF71BBA70BD02
:102D0000B000002054310020A8000020AC000020BA
:102D1000034A00211160034A1180018070470000BE
:102D2000B4000020B80000202DE9F84F1E46904660
:102D300089460446FDF7FAF90090FDF7F5FA208A76
:102D400004F108074FF0000B50B1DFF8BCA09AF86F
:102D50000010491CC9B28AF8001001291AD01BE0E2
:102D6000256A681C0CD06D1CC4E90858FDF7ECFA04
:102D70000098FDF7DFF9A6F800B02846BDE8F88F07
:102D8000FDF7E2FA0098FDF7D5F946F6C550308018
:102D90000020F3E7FFF75CFFFDF7D6FA0098FDF798
:102DA000C9F95FEA895002D53D893F680CE03F6868
:102DB00001250023B9687F681A462046CDF80080B7
:102DC000FFF759FD6D1EADB2002DF2D1246AFDF75B
:102DD000ADF90546FDF7A8FA9AF80000401E10F07C
:102DE000FF008AF8000001D1FFF740FFFDF7ACFAC1
:102DF0002846FDF79FF95FEA094001D4FEF7B0F9D4
:102E0000A6F800B02046B9E7A80000200EB5964C01
:102E1000964E2068450004E028466A460021FEF7E9
:102E200021FF30780128F7D16846FEF797FA9048DD
:102E300022680168914206D90A462168B2FBF1F185
:102E40005FEA010803D100680A21B0FBF1F8DFF85E
:102E500024B2894F42F2107A5FF00006FDF7BEFA05
:102E60000190FDF753FA85490860FDF75FF90546C3
:102E7000FDF75AFA8248834C016821600660FDF72D
:102E800063FA2846FDF756F97F48236802689A429C
:102E90002BD97E48824202D25046012115E07C485F
:102EA000824203D24FF47A700A210EE079488242BE
:102EB00002D26420014608E07748824203D20A2009
:102EC0004FF47A7101E001205146B2FBF1F1584311
:102ED000B0FBF1F0AAEB0000704980B2ABF8000043
:102EE0000A88824203D2088001E0ABF800A0FEF716
:102EF0000BFB0024FDF71AF98146FDF715FA3D6832
:102F000042E000BFFDF712F90290FDF70DFADFF87D
:102F1000909199F80010491CC9B289F80010012954
:102F200001D1FFF795FEFDF70FFA0298FDF702F9C0
:102F3000D5F89C00C5E92760FDF7F8F80290FDF789
:102F4000F3F999F80010491E11F0FF0189F80010FB
:102F50000CD1FFF78BFE5348008838B1FDF7F4F928
:102F60000298FDF7E7F8FFF74FFE04E0FDF7ECF9F4
:102F70000298FDF7DFF855F8A00F0444FDF7D6F8E6
:102F80008146FDF7D1F92D6AFDF7DEF94846FDF7D8
:102F9000D1F8002DB6D12CB33C48844202D255461C
:102FA000012015E03A48844203D24FF47A750A2092
:102FB0000EE03848844202D26425284608E03648AC
:102FC000844203D20A254FF47A7001E0012550466D
:102FD000B4FBF0F08146FDF7A9F80290FDF7A4F9E3
:102FE0003C6822E000250120F4E700BFD4F8A000EF
:102FF0006843B0FBF9F080B2504500D95046A4F8C0
:103000008C00B4F88E10814201D2A4F88E0004F135
:10301000AC026B46111D2046FEF738FDFDF786F821
:103020000290FDF781F9D4F8C040FDF78DF90298C0
:10303000FDF780F8002CD9D11B480178012903D174
:1030400006706846FEF78AF9FDF7C8F90199401A3B
:1030500016490A68824200D208606A46002140464A
:10306000FEF700FEFAE600003C430008CC0000201A
:1030700050430008BC000020D80000205C00002065
:10308000C0000020C8000020C4000020801A0600F4
:1030900000093D00005A62020084D717BE000020DC
:1030A000A80000206C000020BA000020D000002002
:1030B00030B51D4A89B0002111601C4A11601C4ABC
:1030C00011601C4A11701C4A11701C4A136843B1EC
:1030D0001B4B1C4D1C682D68AC4205D246F62C617A
:1030E00008E046F62B6105E0174C25781F2D04D328
:1030F00046F62A61018009B030BD0325059106918D
:10310000CDE9075011481B6812680068CDE901201D
:10311000CDE903312078009000230D4A0DA112481B
:10312000FEF7FAF9E7E70000C0000020C800002021
:10313000C4000020CC000020BA000020404300085A
:10314000484300084C430008384300084443000843
:103150000D2E000875432F4F532D494949205374B4
:103160006174205461736B007034002038B50446DC
:10317000022531B16B46022200F03AFBBDF8000097
:1031800028B184F836502046FFF714FD38BD0320DF
:1031900084F83600F7E70000074B0022C0F8BC2097
:1031A000196829B1C0F8C010C1F8BC001860704798
:1031B000C0F8C020FAE70000D8000020D0E92F2195
:1031C00000234AB181B1C2F8C010C1F8BC20C0F8D8
:1031D000C030C0F8BC307047054A116009B1C1F871
:1031E000BC30C0F8C0307047C2F8C030F1E7000012
:1031F000D8000020044A00211160044A1180044ACA
:103200001160018070470000D8000020DC00002021
:10321000D400002070B50025056085604560C5605C
:10322000056145610446856129A0C4E907506562CE
:10323000A562E5622563E5872564E565A4F860502D
:10324000002104F16400FFF7F1F96567A567C4F890
:103250008050A4F888500020C4F8845004EB80010A
:10326000401CCD6710F0FF00F8D06564C4F8A4508E
:10327000C4F8A850A56384F88A50C4F8B050C4F8C4
:10328000AC50A5874FF00040C4E91205256565657F
:10329000A565A4F88C50A4F88E50C4F89050C4F8DA
:1032A00094503434FDF79AF8C4E91905C4F88050F5
:1032B000C4F8845004F8015B202004F8015B04F892
:1032C000015B04F8850B04A020C4C4E9005070BD64
:1032D0003F5461736B000000200000002DE9FC5F8B
:1032E0009946DDE90C7692468B460546FCF71EFFB3
:1032F0008046FDF719F8474C2078401CC0B220707A
:10330000012801D1FFF7A4FCFDF71EF84046FCF7A9
:1033100011FF0DB9404805680020308095F836004F
:10332000DFF8F880082852D2DFE800F004042626EF
:1033300004042626CDE900764B465246594605F14F
:103340006400FFF77BF9FCF7F1FE0546FCF7ECFFA4
:103350002078401E10F0FF01217031D1FFF786FC6C
:10336000B8F8000060B3FCF7EFFF2846FCF7E2FE78
:10337000BDE8FC5FFFF748BC95F834000228D9D1BE
:1033800053465A46294600200097FFF774FAFCF787
:10339000CDFE0546FCF7C8FF2078401E10F0FF0167
:1033A000217001D1FFF762FCFCF7CEFF2846FCF745
:1033B000C1FE5FEA09402AD4BDE8FC5FFDF7D0BE3C
:1033C000FCF7C2FF2846BDE8FC5FFCF7B3BEFCF784
:1033D000ADFE0546FCF7A8FF2078401E10F0FF0068
:1033E00020700CD1FFF742FCB8F8000038B1FCF7B0
:1033F000ABFF2846FCF79EFEFFF706FC04E0FCF757
:10340000A3FF2846FCF796FE46F62D603080BDE807
:10341000FC9F0000A8000020FC0000206C000020A1
:1034200010B5044600F050FA94F83600400704D472
:103430002046BDE81040FFF755BB10BD2DE9F04117
:103440000D460446FCF772FE0746FCF76DFF0026AA
:103450002E8094F83600082864D2DFE800F00404D7
:1034600004040D394955FCF76FFF3846FCF762FE3E
:1034700047F25310288037E02F4D2878401CC0B207
:103480002870012801D1FFF7E3FBFCF75DFF384608
:10349000FCF750FE94F88A00401E10F0FF0084F8FC
:1034A0008A0004D184F836602046FFF7B9FFFCF7A4
:1034B0003DFE0446FCF738FF2878401E10F0FF015F
:1034C000297001D1FFF7D2FBFCF73EFF204609E04F
:1034D00094F88A00401E10F0FF0084F88A001BD187
:1034E00001200EE0FCF726FEBDE8F041FDF738BEF6
:1034F00094F88A00401E10F0FF0084F88A000BD177
:10350000022084F8360007E094F88A00401E10F08C
:10351000FF0084F88A0003D0FCF716FF3846E1E785
:103520000320EEE7FCF710FF3846FCF703FE46F6F3
:103530002D602880BDE8F081A8000020044808B56F
:103540000068FEF7E3F969460020FEF7E9F808BDD8
:10355000FC0000202DE9F84F984691468B46064620
:10356000FCF7E4FD0546FCF7DFFE594C2078401CD3
:10357000C0B22070012801D1FFF76AFBFCF7E4FE1E
:103580002846FCF7D7FD0EB9524806680020524F76
:10359000C6F84090A8F8000096F8360046F6C55ADE
:1035A000082872D2DFE800F033332F2F33332F2F68
:1035B000FCF7CAFE2846FCF7BDFDFFF725FB04E03B
:1035C000FCF7C2FE2846FCF7B5FDA8F800A00020D5
:1035D000BDE8F88F6D1C7564FCF7A8FD0646FCF786
:1035E000A3FE2078401E10F0FF00207047D1FFF7A7
:1035F0003DFB3888F0B3FCF7A7FE3046FCF79AFD98
:10360000FFF702FB62E096F83400072813D0756CD0
:10361000681CDFD1FCF78AFD0546FCF785FE2078A3
:10362000401E10F0FF002070CAD1FFF71FFB388842
:103630000028C5D0BCE700231A4631461846CDF80D
:103640000090FFF718F9756CFCF770FD0646FCF763
:103650006BFE2078401E10F0FF00207001D1FFF7B4
:1036600005FBFCF771FE3046FCF764FD5FEA0B409A
:103670002CD401E003E008E0FDF772FD26E0FCF742
:1036800063FE3046FCF756FD20E0FCF74FFD054693
:10369000FCF74AFE2078401E10F0FF0020700BD18E
:1036A000FFF7E4FA388838B1FCF74EFE2846FCF7FD
:1036B00041FDFFF7A9FA04E0FCF746FE2846FCF7B7
:1036C00039FD46F62D60A8F80000002528467FE762
:1036D000A8000020FC0000206C0000202DE9F04133
:1036E0000D460446FCF722FD0746FCF71DFE334855
:1036F00004B90468016832488C4209D1017839B1B3
:10370000FCF722FE3846FCF715FD46F6635052E002
:103710000021298094F836100126082944D2DFE8D8
:1037200001F0043133393B3B3B3B05460078401CFC
:10373000C0B22870012801D1FFF78AFAFCF704FE15
:103740003846FCF7F7FC042084F8360084F88A60D9
:103750002046FFF72FFAFCF7E9FC0446FCF7E4FDEE
:103760002878401E10F0FF01297001D1FFF77EFA82
:10377000FCF7EAFD4FEA0400FCF7DCFCBDE8F04191
:10378000FDF7EEBC052000E0062084F8360084F842
:103790008A6005E00720F8E714F88A0F401C2070C3
:1037A000FCF7D2FD3846E7E7FCF7CEFD3846FCF7DC
:1037B000C1FC46F62D602880BDE8F081FC000020A9
:1037C000A800002010B500200146074C074B06E07A
:1037D00004EBC002401C11609180D18080B21A8835
:1037E0009042F5D310BD0000442E00206443000831
:1037F000F0B5324C47F27E2625680024042A08D012
:10380000B1B32E4E082A36680E440BD0C0E91361BE
:1038100015E04A1B521E12F5803F2AD8521CC0E9FF
:1038200013120CE0826C0A44571B7F1E8F4201D298
:10383000C26400E0C664C16C4A1B02658164204A10
:10384000C16C1288B1FBF2F602FB16111D4A89B257
:1038500002EBC102918889B11168F1B1CE6C761B7F
:103860000E65076DB74212D94E6966B13146F5E76C
:10387000FFE7C4640465C4611E80F0BD44618461D7
:10388000012110600BE0C0E90541486105E08D6948
:1038900075B1C0E90515686188619188491C9180FE
:1038A000D58889B28D4200D2D180C2611C80F0BD22
:1038B000C0E9051488611060EFE70000E000002017
:1038C00064430008442E002010B5C269002A15D0B8
:1038D000002101651368834204D14369136033B149
:1038E000996104E0D0E90534636103B19C614161F1
:1038F0008161C161C1649088401E908010BD00004C
:1039000010B500200446064B064A04E003EBC00154
:10391000401CCC8080B211888842F7D310BD0000D3
:10392000442E0020644300082DE9F05FFCF7FEFB05
:103930000446FCF7F9FC554D2878401CC1B22970AB
:10394000012901D1FFF784F9FCF7FEFC2046FCF7C2
:10395000F1FBFCF743FDDFF8388107464D49D8F805
:1039600000004FF00009401CC8F8000009884FF023
:10397000030AB0FBF1F201FB1200474980B24FF09D
:10398000040B51F8304074B394F836006669082887
:1039900051D2DFE800F05004501150295036E06C4D
:1039A000D8F80010421A2265884246D184F8369031
:1039B0002046FFF735FD3EE0E06CD8F80010421AD3
:1039C0002265884239D1C4F85C90A4F86090FCF775
:1039D00005FD20642046FEF720FF2046FFF720FD6E
:1039E00084F8369023E028E0E06CD8F80010421A02
:1039F0002265884221D184F836B02046FFF764FF63
:103A000019E0E06CD8F80010421A2265884214D1FF
:103A1000C4F85C90A4F86090FCF7E0FC20642046B9
:103A2000FEF7FBFE2046FFF74FFF84F836B084F820
:103A300035A084F834903446A5E7FCF7CFFC17494D
:103A4000C01B0A68824200D20860FCF76FFB044684
:103A5000FCF76AFC2878401E10F0FF0129700DD198
:103A6000FFF704F90E48008840B1FCF76DFC2046D2
:103A7000FCF760FBBDE8F05FFFF7C6B8FCF764FC3D
:103A80002046BDE8F05FFCF755BB0000A800002011
:103A9000E000002064430008442E0020E4000020E1
:103AA0006C0000201CB5084C00216B4601AA08469A
:103AB000FDF734FFBDF800000028F5D1207801287B
:103AC000F2D1FFF731FFEFE76000002030B5044688
:103AD0001A4889B00025056019480560FFF772FE95
:103AE0001848016841B11849184B0A681B689A4286
:103AF00005D247F2132008E047F2122005E0144AED
:103B000013781F2B04D347F21120208009B030BD59
:103B10000B2305950695CDE907340E4B096800681F
:103B20001B68CDE90103CDE903151078009000234F
:103B3000094A0AA10E48FDF7EFFCE7E7E000002084
:103B4000E400002058430008604300084C4300088C
:103B5000544300085C430008A53A000875432F4F02
:103B6000532D494949205469636B205461736B009C
:103B70003835002030B52A4A89B00021294B116020
:103B8000294C2A4A1D681DB12468B4FBF5F303E0F3
:103B900023680A24B3FBF4F313601A46244B274D21
:103BA000274C1A60234A1160234A1160002206E064
:103BB00005EBC203521C9980D98092B21960238808
:103BC0009A42F5D31F4B1A6842B11F4A1F4D146821
:103BD0002D68AC4205D247F2483108E047F2473140
:103BE00005E01B4C25781F2D04D347F24631018098
:103BF00009B030BD0B2505910691CDE9075010683D
:103C0000144A1B681268CDE90301CDE9013220781E
:103C100000900023104A11A11648FDF77DFCE7E74C
:103C2000E80000206843000850430008F40000202A
:103C3000F8000020F0000020EC000020CC30002034
:103C4000784300086C430008744300084C430008A4
:103C50006643000870430008393D000875432F4F44
:103C6000532D4949492054696D6572205461736B25
:103C7000000000000036002070B5022280F82A20E3
:103C8000204A012914681ED0016AE1B11E4A21446C
:103C900081611288B1FBF2F302FB13121B4B92B24B
:103CA00003EBC202002315687DB1091BC1611168D5
:103CB000D1B18D692D1BCD61C669AE420ED90D699A
:103CC00045B12946F5E7416AE0E7036143611060C9
:103CD00001200BE0C0E90431086105E04C6964B1E2
:103CE000C0E90414206148619088401C9080D1880C
:103CF00080B2814200D2D08070BDC0E90413486117
:103D00001060F1E7F000002078430008CC3000207C
:103D100010B500200446064B064A04E003EBC00140
:103D2000401CCC8080B211888842F7D310BD0000BF
:103D3000CC300020784300081CB5DFF89090DFF805
:103D400090A0244DDFF890B000216B4601AA0846F0
:103D5000FDF7E4FD6846FDF741FAFCF73FFB064638
:103D600028684FF00308401C2860B9F80010B0FB29
:103D7000F1F201FB120080B25AF83040C4B1A069E0
:103D800029682769884213D1204600F027F8208D42
:103D9000022808D084F82A80A26812B12046E1687F
:103DA00090473C46EAE701212046FFF765FFF3E72D
:103DB000FCF714FB841B6846FDF76AFADBF8001079
:103DC000A142C1D2CBF80040BEE700007843000812
:103DD000CC300020F0000020EC00002010B5104A8C
:103DE00081691288B1FBF2F302FB13110D4A89B20B
:103DF00002EBC102002314680169844203D11160FF
:103E000029B14B6103E04469216101B14C61012199
:103E100080F82A10036143619088401E908010BD95
:103E200078430008CC300020704730B58FB028218F
:103E30006846FCF798F914210AA8FCF794F90121C7
:103E40000804CDE900100024029402250491CDE974
:103E500007504FF4E01009906846FCF737FD0F203B
:103E6000CDE90A056802CDE90C4002210AA80E94AA
:103E7000FCF73AFC0FB030BD7047000070B5044647
:103E800000680169E26821F4405111430161216930
:103E9000A0680843616908432168CA6841F20C635D
:103EA0009A430243CA6020684169A26921F44071C3
:103EB000114341611E492068884202D1FCF7C0FCD1
:103EC00001E0FCF7ADFC00EBC00101EB0012606803
:103ED00064218000B2FBF0F3B3FBF1F36FF018063E
:103EE0007343B2FBF0F5B2FBF0F605EB830532232A
:103EF00003EB0515B5FBF1F5B6FBF1F605F0F005A2
:103F000005EB0615B2FBF0F6B2FBF0F0B0FBF1F0FA
:103F10006FF01802504306EB800003EB0010B0FB7B
:103F2000F1F0216800F00F002844886070BD0000A7
:103F3000003801402DE9F041984617460E460446E8
:103F4000069D1DE0681C1BD02DB1FCF745FBA0EBC6
:103F50000800A84214D92068C16821F4D071C1605A
:103F60002068416921F001014161202084F83D0071
:103F700084F83E00002084F83C000320BDE8F08176
:103F80002068006836EA000004D00020B842D9D08A
:103F90000020F3E70120F9E7FEE70000014A0249AB
:103FA00000F023B80D400008040100200907090EA5
:103FB000002804DB00F1E02080F80014704700F0D6
:103FC0000F0000F1E02080F8141D704702E008C8DF
:103FD000121F08C1002AFAD170477047002001E083
:103FE00001C1121F002AFBD170472DE9F04116468E
:103FF0000F460446002503E03946B047641C6D1C9B
:1040000020780028F8D12846BDE8F08113B54FF696
:10401000FF73012269460248FCF766FE00981CBD4A
:10402000280800200EB5FCF7FDF8FCF713F9FCF7A3
:1040300021FF02A8FDF70EFAFCF758F90F4E0025F4
:1040400002AC4FF4FA77002220213046FCF7BEFA8A
:104050000022CDE900543B4611461046FDF778FE9C
:10406000012220213046FCF7B1FA0022CDE90054AC
:104070003B4611461046FDF76BFEE4E700080140A1
:104080000EB5FCF7CFF8FCF7E5F8FCF7F3FE02A855
:10409000FDF7E0F9FCF72AF90F4E002502AC4FF4CA
:1040A000FA77002202213046FCF790FACDE900545D
:1040B00000213B4601220846FDF74AFE012202216B
:1040C0003046FCF783FACDE9005400213B4601223B
:1040D0000846FDF73DFEE4E7000C014010B58AB04C
:1040E00009A8FCF719FFFCF77DFAFFF79EFEFCF725
:1040F0009FFE002006AB09AA0321059083E8070074
:1041000040220623094CCDE90232CDE90014049087
:104110000346074A07A104F58060FDF7FDF909A8E9
:10412000FDF7F0F80AB0002010BD000008010020E3
:104130009D4100087374617274207461736B000098
:104140000EB5FCF76FF8FCF785F8FCF793FE02A8B4
:10415000FDF780F9FCF7CAF8002402AD05A0FFF7CF
:104160001DFF0023022219461846CDE90045FDF740
:10417000EFFDF3E768656C6C6F2075632F4F53217B
:1041800020BBB6D3ADC0B4B5BD52544F53B6E0C892
:10419000CECEF1BBB7BEB3A3A10D0A002DE9F04707
:1041A0008AB0FCF73FF809A8FDF754F9FCF79EF830
:1041B000012109AA0846FDF73FF8FBF7B7FF0446BF
:1041C000FCF7B2F8DFF8E4A09AF80000401CC2B295
:1041D0008AF80020012A01D1FEF73AFDFCF7B4F875
:1041E0002046FBF7A7FF00240326CDE9064609ADCC
:1041F00005944FF004094FF006082D490895CDF8B5
:104200000090CDE901184027CDE903742346294ADF
:1042100029A12B48FDF780F9CDE9064605942949E7
:104220000895CDF80090CDE901182548CDE9037433
:104230000023254A25A1C830FDF76EF9CDE90646D1
:1042400024490895059405208DE80301CDE9037400
:104250000023214A21A12448FDF75EF9184809A945
:10426000C838FFF73BFAFBF761FF0446FCF75CF840
:104270009AF80000401E10F0FF028AF800200ED1CC
:10428000FEF7F4FC1948008848B1FCF75DF82046B9
:10429000FBF750FFFEF7B8FC0AB0BDE8F087FCF76B
:1042A00053F82046FBF746FFF6E70000A800002081
:1042B00008020020254000086C65645F70613500CD
:1042C000D005002008030020814000086C65645F71
:1042D00070623100080400204141000873656E647B
:1042E0005F6D736700000000600700206C00002015
:1042F0000000000000000000010203040607080996
:104300000000000001020304C41C00200C00000097
:1043100080000000C41E00200A00000004200020CD
:104320000C0000008000000004220020800000003B
:1043300064000000042400200B0000000A000000BC
:10434000442A00200C000000800000004000000013
:10435000E80300000A000000442C00200C000000CC
:104360008000000011000B000A000000CC2E00208D
:104370000C00000080000000110000009C430008B9
:104380000000002008010000CC3F0008A444000801
:1043900008010020C0390000DC3F000801000000D7
:1043A00010000000000000000024F40000000000E5
:1043B00000000000000000000000000000000000FD
:1043C00000000000000000000000000000000000ED
:1043D00000000000000000000000000000000000DD
:1043E00000000000000000000000000000000000CD
:1043F00000000000000000000000000000000000BD
:1044000000000000000000000000000000000000AC
:10441000000000000000000000000000000000009C
:10442000000000000000000000000000000000008C
:10443000000000000000000000000000000000007C
:10444000000000000000000000000000000000006C
:10445000000000000000000000000000000000005C
:10446000000000000000000000000000000000004C
:10447000000000000000000000000000000000003C
:10448000000000000000000000000000000000002C
:10449000000000000000000000000000000000001C
:0444A0000000000018
:04000005080000ED02
:00000001FF
